:100000000EC015C014C013C012C011C010C00FC064
:100010000EC00DC00CC00BC00AC009C008C011241E
:100020001FBECFE5D2E0DEBFCDBF1ED02CC0E8CFD3
:100030006115710561F498B321E030E002C0220F30
:10004000331F8A95E2F72095292328BB0AC098B36D
:1000500021E030E002C0220F331F8A95E2F7922B95
:1000600098BB81E090E0089580E187BBB39B05C019
:1000700084E090E061E070E004C084E090E060E043
:0A00800070E0D6DFF3CFF894FFCF55
:00000001FF
